0Avaliação Acolhimento PA                                    N000000028100021
0DITA                                                        N000000028100067
2Avaliação Acolhimento Pronto Atendimento                                                                                                                                                                                                                       00001T 0               0000000000 00000000000000 0000000N00000000                                                                                                                                                                                                                                                                                                                                                                                                                                                                                                                                                                                     Avaliação Acolhimento PA                                    150
2DECLARAÇÃO DE IMPOSSIBILIDADE TÉCNICA DE ATENDIMENTO NA REFERÊNCIA                                                                                                                                                                                             00001T 0               0000000000 00000000000000 0000000N00000000                                                                                                                                                                                                                                                                                                                      SELECT + ; + NOME TABELA + ; + ATRIBUTO COD + ; + ATRIBUTO DESC                                                                                                                                                                                                DITA                                                        300
3IDENTIFICAÇÃO                                                                                                                                                                                                                                                  00002T 0               0000000000 00000000000000 00000000000000825Avaliação Acolhimento Pronto Atendimento                                                                                                                                                                                                                       0000000001N00000000                                                                                                                                                                                                                                                                                                                      Avaliação Acolhimento PA                                    150
3IDENTIFICAÇÃO                                                                                                                                                                                                                                                  00002T 0               0000000000 00000000000000 00000000000001818DECLARAÇÃO DE IMPOSSIBILIDADE TÉCNICA DE ATENDIMENTO NA REFERÊNCIA                                                                                                                                                                                             0000000001N00000000                                                                                                                                                                                                                                                                                                                      DITA                                                        000
3Nome do(a) Paciente                                                                                                                                                                                                                                            00003C 0               0000000000 00000000000000 00000000000001819IDENTIFICAÇÃO                                                                                                                                                                                                                                                  0000000002S13000000@nome                                                                                                                                                                                                                                                                                                                 DITA                                                        150
3NOME                                                                                                                                                                                                                                                           00004C 0               0000000000 00000000000000 00000000000000826IDENTIFICAÇÃO                                                                                                                                                                                                                                                  0000000002N07000000@nome                                                                                                                                                                                                                                                                                                                 Avaliação Acolhimento PA                                    600
3Atendimento                                                                                                                                                                                                                                                    00004C 0               0000000000 00000000000000 00003000000001819IDENTIFICAÇÃO                                                                                                                                                                                                                                                  0000000002S13000000@nr_atendimento                                                                                                                                                                                                                                                                                                       DITA                                                        150
3PESO                                                                                                                                                                                                                                                           00005C 0               0000000000 00000000000000 00000000000000826IDENTIFICAÇÃO                                                                                                                                                                                                                                                  0000000002N07000000@peso                                                                                                                                                                                                                                                                                                                 Avaliação Acolhimento PA                                    045
3IDADE                                                                                                                                                                                                                                                          00006C 0               0000000000 00000000000000 00000000000000826IDENTIFICAÇÃO                                                                                                                                                                                                                                                  0000000002N07000000@idade                                                                                                                                                                                                                                                                                                                Avaliação Acolhimento PA                                    045
3ATENDIMENTO                                                                                                                                                                                                                                                    00007C 0               0000000000 00000000000000 00001400000000826IDENTIFICAÇÃO                                                                                                                                                                                                                                                  0000000002N00000000@nr_atendimento                                                                                                                                                                                                                                                                                                       Avaliação Acolhimento PA                                    070
3DATA / HORA                                                                                                                                                                                                                                                    00009C 0               0000000000 00000000000000 00001550000000826IDENTIFICAÇÃO                                                                                                                                                                                                                                                  0000000002N00000000@data_hora                                                                                                                                                                                                                                                                                                            Avaliação Acolhimento PA                                    120
3Município de Residência:                                                                                                                                                                                                                                       00010C 0               0000000000 00000000000000 00000000000001819IDENTIFICAÇÃO                                                                                                                                                                                                                                                  0000000002S13000000@municipio                                                                                                                                                                                                                                                                                                            DITA                                                        150
3NECESSIDADE ESPECIAL                                                                                                                                                                                                                                           00011T 0               0000000000 00000000000000 00000000000000826IDENTIFICAÇÃO                                                                                                                                                                                                                                                  0000000002N00000000                                                                                                                                                                                                                                                                                                                      Avaliação Acolhimento PA                                    150
3Especialidade solicitada:                                                                                                                                                                                                                                      00012C 0               0000000000 00000000000000 00003000000001819IDENTIFICAÇÃO                                                                                                                                                                                                                                                  0000000002S13000000                                                                                                                                                                                                                                                                                                                      DITA                                                        150
3NÃO                                                                                                                                                                                                                                                            00012B 0               0000000000 00000000000000 00000050000000831NECESSIDADE ESPECIAL                                                                                                                                                                                                                                           0000000011N00000000                                                                                                                                                                                                                                                                                                                      Avaliação Acolhimento PA                                    060
3SIM                                                                                                                                                                                                                                                            00013B 0               0000000000 00000000000000 00000000000000831NECESSIDADE ESPECIAL                                                                                                                                                                                                                                           0000000011N00000000                                                                                                                                                                                                                                                                                                                      Avaliação Acolhimento PA                                    060
3QUAL                                                                                                                                                                                                                                                           00014C 0               0000000000 00000000000000 00000950000000831NECESSIDADE ESPECIAL                                                                                                                                                                                                                                           0000000011N00000000                                                                                                                                                                                                                                                                                                                      Avaliação Acolhimento PA                                    250
3Nome do serviço/hospital de Referência Regional pactuada na Comissão Intergestores Bipartite (CIB) para atendimento da especialidade solicitada na região:                                                                                                     00015H 0               0000000000 00000000000000 00000000000001819IDENTIFICAÇÃO                                                                                                                                                                                                                                                  0000000002N00100000                                                                                                                                                                                                                                                                                                                      DITA                                                        300
3                                                                                                                                                                                                                                                               00016C 0               0000000000 00000000000000 00000000000001823Nome do serviço/hospital de Referência Regional pactuada na Comissão Intergestores Bipartite (CIB) para atendimento da especialidade solicitada na região:                                                                                                     0000000015S01500000                                                                                                                                                                                                                                                                                                                      DITA                                                        350
3QUEIXAS / EVOLUÇÃO                                                                                                                                                                                                                                             00020T 0               0000000000 00000000000000 00000000000000825Avaliação Acolhimento Pronto Atendimento                                                                                                                                                                                                                       0000000001N00000000                                                                                                                                                                                                                                                                                                                      Avaliação Acolhimento PA                                    150
3DOR TORÁCICA                                                                                                                                                                                                                                                   00021B 0               0000000000 00000000000000 00000000000000836QUEIXAS / EVOLUÇÃO                                                                                                                                                                                                                                             0000000020N13500000N                                                                                                                                                                                                                                                                                                                     Avaliação Acolhimento PA                                    120
3PROTOCOLO DE AVC                                                                                                                                                                                                                                               00021B 0               0000000000 00000000000000 00000000000000836QUEIXAS / EVOLUÇÃO                                                                                                                                                                                                                                             0000000020N13500000N                                                                                                                                                                                                                                                                                                                     Avaliação Acolhimento PA                                    140
3FLUXOGRAMA/QUEIXA PRINCIPAL                                                                                                                                                                                                                                    00021D 0               0000000000 00000000000000 00000000000000836QUEIXAS / EVOLUÇÃO                                                                                                                                                                                                                                             0000000020N19000000                                                                                                                                                                                                                                                                                                                      Avaliação Acolhimento PA                                    479
3SEPSE                                                                                                                                                                                                                                                          00021B 0               0000000000 00000000000000 00000000000000836QUEIXAS / EVOLUÇÃO                                                                                                                                                                                                                                             0000000020N13500000                                                                                                                                                                                                                                                                                                                      Avaliação Acolhimento PA                                    120
3EVOLUÇÃO                                                                                                                                                                                                                                                       00022D 0               0000000000 00000000000000 00000000000000836QUEIXAS / EVOLUÇÃO                                                                                                                                                                                                                                             0000000020N09500000                                                                                                                                                                                                                                                                                                                      Avaliação Acolhimento PA                                    574
3EXAME FÍSICO                                                                                                                                                                                                                                                   00035T 0               0000000000 00000000000000 00000000000000825Avaliação Acolhimento Pronto Atendimento                                                                                                                                                                                                                       0000000001N00000000                                                                                                                                                                                                                                                                                                                      Avaliação Acolhimento PA                                    150
3DECLARAÇÃO DE IMPOSSIBILIDADE TÉCNICA (RESPONSÁVEL REFERÊNCIA REGIONAL PACTUADA                                                                                                                                                                                00040T 0               0000000000 00000000000000 00000000000001818DECLARAÇÃO DE IMPOSSIBILIDADE TÉCNICA DE ATENDIMENTO NA REFERÊNCIA                                                                                                                                                                                             0000000001N00000000                                                                                                                                                                                                                                                                                                                      DITA                                                        300
3Nome do HOSPITAL (QUE DECLARA IMPOSSIBILIDADE TÉCNICA)                                                                                                                                                                                                         00041C 0               0000000000 00000000000000 00000000000001824DECLARAÇÃO DE IMPOSSIBILIDADE TÉCNICA (RESPONSÁVEL REFERÊNCIA REGIONAL PACTUADA                                                                                                                                                                                0000000040S35000000Hospital de Caridade                                                                                                                                                                                                                                                                                                  DITA                                                        300
3PUPILAS                                                                                                                                                                                                                                                        00041T 0               0000000000 00000000000000 00000000000000839EXAME FÍSICO                                                                                                                                                                                                                                                   0000000035N00000000                                                                                                                                                                                                                                                                                                                      Avaliação Acolhimento PA                                    150
3ISOCÓRICAS                                                                                                                                                                                                                                                     00042B 0               0000000000 00000000000000 00000050000000840PUPILAS                                                                                                                                                                                                                                                        0000000041N00000000                                                                                                                                                                                                                                                                                                                      Avaliação Acolhimento PA                                    120
3ANISOCÓRICAS                                                                                                                                                                                                                                                   00043B 0               0000000000 00000000000000 00000900000000840PUPILAS                                                                                                                                                                                                                                                        0000000041N00000000                                                                                                                                                                                                                                                                                                                      Avaliação Acolhimento PA                                    150
3DISCÓRICAS                                                                                                                                                                                                                                                     00044B 0               0000000000 00000000000000 00001100000000840PUPILAS                                                                                                                                                                                                                                                        0000000041N00000000                                                                                                                                                                                                                                                                                                                      Avaliação Acolhimento PA                                    110
3RFM+                                                                                                                                                                                                                                                           00045B 0               0000000000 00000000000000 00002880000000840PUPILAS                                                                                                                                                                                                                                                        0000000041N00000000                                                                                                                                                                                                                                                                                                                      Avaliação Acolhimento PA                                    080
3RFM-                                                                                                                                                                                                                                                           00046B 0               0000000000 00000000000000 00000500000000840PUPILAS                                                                                                                                                                                                                                                        0000000041N00000000                                                                                                                                                                                                                                                                                                                      Avaliação Acolhimento PA                                    080
3COMPORTAMENTO                                                                                                                                                                                                                                                  00047T 0               0000000000 00000000000000 00000000000000839EXAME FÍSICO                                                                                                                                                                                                                                                   0000000035N00000000                                                                                                                                                                                                                                                                                                                      Avaliação Acolhimento PA                                    150
3CALMO                                                                                                                                                                                                                                                          00048B 0               0000000000 00000000000000 00000050000000846COMPORTAMENTO                                                                                                                                                                                                                                                  0000000047N00000000                                                                                                                                                                                                                                                                                                                      Avaliação Acolhimento PA                                    060
3ANSIOSO                                                                                                                                                                                                                                                        00049B 0               0000000000 00000000000000 00000600000000846COMPORTAMENTO                                                                                                                                                                                                                                                  0000000047N00000000                                                                                                                                                                                                                                                                                                                      Avaliação Acolhimento PA                                    070
3APÁTICO                                                                                                                                                                                                                                                        00050B 0               0000000000 00000000000000 00000700000000846COMPORTAMENTO                                                                                                                                                                                                                                                  0000000047N00000000                                                                                                                                                                                                                                                                                                                      Avaliação Acolhimento PA                                    075
3AGRESSIVO                                                                                                                                                                                                                                                      00051B 0               0000000000 00000000000000 00000700000000846COMPORTAMENTO                                                                                                                                                                                                                                                  0000000047N00000000                                                                                                                                                                                                                                                                                                                      Avaliação Acolhimento PA                                    085
3Declaro que o Hospital:                                                                                                                                                                                                                                        00051T 0               0000000000 00000000000000 00000000000001818DECLARAÇÃO DE IMPOSSIBILIDADE TÉCNICA DE ATENDIMENTO NA REFERÊNCIA                                                                                                                                                                                             0000000001N70000000                                                                                                                                                                                                                                                                                                                      DITA                                                        150
3CONFUSO                                                                                                                                                                                                                                                        00052B 0               0000000000 00000000000000 00000850000000846COMPORTAMENTO                                                                                                                                                                                                                                                  0000000047N00000000                                                                                                                                                                                                                                                                                                                      Avaliação Acolhimento PA                                    090
3DEPRESSIVO                                                                                                                                                                                                                                                     00053B 0               0000000000 00000000000000 00000750000000846COMPORTAMENTO                                                                                                                                                                                                                                                  0000000047N00000000                                                                                                                                                                                                                                                                                                                      Avaliação Acolhimento PA                                    100
3CHOROSO                                                                                                                                                                                                                                                        00055B 0               0000000000 00000000000000 00000900000000846COMPORTAMENTO                                                                                                                                                                                                                                                  0000000047N00000000                                                                                                                                                                                                                                                                                                                      Avaliação Acolhimento PA                                    080
3LOCOMOÇÃO                                                                                                                                                                                                                                                      00055T 0               0000000000 00000000000000 00000000000000839EXAME FÍSICO                                                                                                                                                                                                                                                   0000000035N00000000                                                                                                                                                                                                                                                                                                                      Avaliação Acolhimento PA                                    150
3DEAMBULA                                                                                                                                                                                                                                                       00056B 0               0000000000 00000000000000 00000050000000855LOCOMOÇÃO                                                                                                                                                                                                                                                      0000000055N00000000                                                                                                                                                                                                                                                                                                                      Avaliação Acolhimento PA                                    080
3CADEIRA                                                                                                                                                                                                                                                        00057B 0               0000000000 00000000000000 00000830000000855LOCOMOÇÃO                                                                                                                                                                                                                                                      0000000055N00000000                                                                                                                                                                                                                                                                                                                      Avaliação Acolhimento PA                                    070
3MACA                                                                                                                                                                                                                                                           00058B 0               0000000000 00000000000000 00000700000000855LOCOMOÇÃO                                                                                                                                                                                                                                                      0000000055N00000000                                                                                                                                                                                                                                                                                                                      Avaliação Acolhimento PA                                    075
3COLO                                                                                                                                                                                                                                                           00059B 0               0000000000 00000000000000 00000550000000855LOCOMOÇÃO                                                                                                                                                                                                                                                      0000000055N00000000                                                                                                                                                                                                                                                                                                                      Avaliação Acolhimento PA                                    075
3TORAX / AUSCULTA                                                                                                                                                                                                                                               00060C 0               0000000000 00000000000000 00000000000000839EXAME FÍSICO                                                                                                                                                                                                                                                   0000000035N14000000                                                                                                                                                                                                                                                                                                                      Avaliação Acolhimento PA                                    450
3NÃO SE APLICA                                                                                                                                                                                                                                                  00061B 0               0000000000 00000000000000 00004600000000839EXAME FÍSICO                                                                                                                                                                                                                                                   0000000035N00000000                                                                                                                                                                                                                                                                                                                      Avaliação Acolhimento PA                                    100
3ABDOME                                                                                                                                                                                                                                                         00062C 0               0000000000 00000000000000 00000000000000839EXAME FÍSICO                                                                                                                                                                                                                                                   0000000035N08000000                                                                                                                                                                                                                                                                                                                      Avaliação Acolhimento PA                                    420
3NÃO SE APLICA                                                                                                                                                                                                                                                  00063B 0               0000000000 00000000000000 00004250000000839EXAME FÍSICO                                                                                                                                                                                                                                                   0000000035N00000000                                                                                                                                                                                                                                                                                                                      Avaliação Acolhimento PA                                    100
3RHA+                                                                                                                                                                                                                                                           00064B 0               0000000000 00000000000000 00001050000000839EXAME FÍSICO                                                                                                                                                                                                                                                   0000000035N00000000                                                                                                                                                                                                                                                                                                                      Avaliação Acolhimento PA                                    050
3RHA-                                                                                                                                                                                                                                                           00065B 0               0000000000 00000000000000 00000500000000839EXAME FÍSICO                                                                                                                                                                                                                                                   0000000035N00000000                                                                                                                                                                                                                                                                                                                      Avaliação Acolhimento PA                                    050
3Não tem habilitação legal (portarias MS, portarias da SES e/ou resoluções CIB) para realização do procedimento indicado.                                                                                                                                       00081B 0               0000000000 00000000000000 00000000000001826Declaro que o Hospital:                                                                                                                                                                                                                                        0000000051N00000000                                                                                                                                                                                                                                                                                                                      DITA                                                        600
3Qual o procedimento indicado                                                                                                                                                                                                                                   00086C 0               0000000000 00000000000000 00000000000001826Declaro que o Hospital:                                                                                                                                                                                                                                        0000000051N17000000                                                                                                                                                                                                                                                                                                                      DITA                                                        150
3Foi desabilitado para realização do procedimento indicado.                                                                                                                                                                                                     00090B 0               0000000000 00000000000000 00000000000001826Declaro que o Hospital:                                                                                                                                                                                                                                        0000000051N00000000                                                                                                                                                                                                                                                                                                                      DITA                                                        600
3Qual o procedimento indicado                                                                                                                                                                                                                                   00099C 0               0000000000 00000000000000 00000000000001826Declaro que o Hospital:                                                                                                                                                                                                                                        0000000051N17000000                                                                                                                                                                                                                                                                                                                      DITA                                                        150
3ATENDIMENTO RETORNO                                                                                                                                                                                                                                            00100T 0               0000000000 00000000000000 00000000000000825Avaliação Acolhimento Pronto Atendimento                                                                                                                                                                                                                       0000000001N00000000                                                                                                                                                                                                                                                                                                                      Avaliação Acolhimento PA                                    150
3Não possui especificidade técnica na região e indica que o paciente seja encaminhado para o:                                                                                                                                                                   00101B 0               0000000000 00000000000000 00000000000001826Declaro que o Hospital:                                                                                                                                                                                                                                        0000000051N00000000                                                                                                                                                                                                                                                                                                                      DITA                                                        600
3Hospital                                                                                                                                                                                                                                                       00102C 0               0000000000 00000000000000 00000000000001826Declaro que o Hospital:                                                                                                                                                                                                                                        0000000051N07000000                                                                                                                                                                                                                                                                                                                      DITA                                                        150
3Qual especificidade                                                                                                                                                                                                                                            00102C 0               0000000000 00000000000000 00003000000001826Declaro que o Hospital:                                                                                                                                                                                                                                        0000000051N00000000                                                                                                                                                                                                                                                                                                                      DITA                                                        150
3Interrupção temporária (catástrofe: incêndio, inundação, desabastecimento de energia elétrica impedimento da vigilância sanitária                                                                                                                              00103B 0               0000000000 00000000000000 00000000000001826Declaro que o Hospital:                                                                                                                                                                                                                                        0000000051N00000000                                                                                                                                                                                                                                                                                                                      DITA                                                        700
3Qual especificidade                                                                                                                                                                                                                                            00104C 0               0000000000 00000000000000 00000000000001826Declaro que o Hospital:                                                                                                                                                                                                                                        0000000051N12000000                                                                                                                                                                                                                                                                                                                      DITA                                                        150
3JUSTIFICATIVA                                                                                                                                                                                                                                                  00105S 0               0000000000 00000000000000 00000000000001121ATENDIMENTO RETORNO                                                                                                                                                                                                                                            0000000100S09500000                                                                                                                                                                                                                                                                                                                      Avaliação Acolhimento PA                                    550
3ENFERMEIRO                                                                                                                                                                                                                                                     00150C 0               0000000000 00000000000000 00000000000000825Avaliação Acolhimento Pronto Atendimento                                                                                                                                                                                                                       0000000001N13000000@usuario                                                                                                                                                                                                                                                                                                              Avaliação Acolhimento PA                                    560
50000001122JUSTIFICATIVA                                                                                                                                                                                                                                                  Avaliação de Exames                                                                                                                                                                                                                                            0000000000 00000000000021Avaliação Acolhimento PA                                    
50000001122JUSTIFICATIVA                                                                                                                                                                                                                                                  Caso Agudo                                                                                                                                                                                                                                                     0000000000 00000000000021Avaliação Acolhimento PA                                    
50000001122JUSTIFICATIVA                                                                                                                                                                                                                                                  Caso Crônico                                                                                                                                                                                                                                                   0000000000 00000000000021Avaliação Acolhimento PA                                    
50000001122JUSTIFICATIVA                                                                                                                                                                                                                                                  Não se Aplica                                                                                                                                                                                                                                                  0000000000 00000000000021Avaliação Acolhimento PA                                    
50000001122JUSTIFICATIVA                                                                                                                                                                                                                                                  Orientação Médica                                                                                                                                                                                                                                              0000000000 00000000000021Avaliação Acolhimento PA                                    
